{
  "contractName": "ChungToken",
  "abi": [
    {
      "constant": true,
      "inputs": [],
      "name": "name",
      "outputs": [
        {
          "name": "",
          "type": "string"
        }
      ],
      "payable": false,
      "stateMutability": "view",
      "type": "function"
    },
    {
      "constant": false,
      "inputs": [
        {
          "name": "_spender",
          "type": "address"
        },
        {
          "name": "_value",
          "type": "uint256"
        }
      ],
      "name": "approve",
      "outputs": [
        {
          "name": "success",
          "type": "bool"
        }
      ],
      "payable": false,
      "stateMutability": "nonpayable",
      "type": "function"
    },
    {
      "constant": true,
      "inputs": [],
      "name": "totalSupply",
      "outputs": [
        {
          "name": "",
          "type": "uint256"
        }
      ],
      "payable": false,
      "stateMutability": "view",
      "type": "function"
    },
    {
      "constant": false,
      "inputs": [
        {
          "name": "_from",
          "type": "address"
        },
        {
          "name": "_amount",
          "type": "uint256"
        }
      ],
      "name": "consume",
      "outputs": [],
      "payable": false,
      "stateMutability": "nonpayable",
      "type": "function"
    },
    {
      "constant": false,
      "inputs": [
        {
          "name": "_from",
          "type": "address"
        },
        {
          "name": "_to",
          "type": "address"
        },
        {
          "name": "_value",
          "type": "uint256"
        }
      ],
      "name": "transferFrom",
      "outputs": [
        {
          "name": "success",
          "type": "bool"
        }
      ],
      "payable": false,
      "stateMutability": "nonpayable",
      "type": "function"
    },
    {
      "constant": true,
      "inputs": [],
      "name": "decimals",
      "outputs": [
        {
          "name": "",
          "type": "uint8"
        }
      ],
      "payable": false,
      "stateMutability": "view",
      "type": "function"
    },
    {
      "constant": false,
      "inputs": [
        {
          "name": "pricingModelAddr",
          "type": "address"
        },
        {
          "name": "_amount",
          "type": "uint256"
        }
      ],
      "name": "setVolumeToPricingModel",
      "outputs": [],
      "payable": false,
      "stateMutability": "nonpayable",
      "type": "function"
    },
    {
      "constant": true,
      "inputs": [
        {
          "name": "",
          "type": "address"
        }
      ],
      "name": "balanceOf",
      "outputs": [
        {
          "name": "",
          "type": "uint256"
        }
      ],
      "payable": false,
      "stateMutability": "view",
      "type": "function"
    },
    {
      "constant": false,
      "inputs": [
        {
          "name": "_to",
          "type": "address"
        },
        {
          "name": "_amount",
          "type": "uint256"
        }
      ],
      "name": "issue",
      "outputs": [],
      "payable": false,
      "stateMutability": "nonpayable",
      "type": "function"
    },
    {
      "constant": true,
      "inputs": [],
      "name": "symbol",
      "outputs": [
        {
          "name": "",
          "type": "string"
        }
      ],
      "payable": false,
      "stateMutability": "view",
      "type": "function"
    },
    {
      "constant": false,
      "inputs": [
        {
          "name": "pricingModelAddr",
          "type": "address"
        }
      ],
      "name": "setSupplyToPricingModel",
      "outputs": [],
      "payable": false,
      "stateMutability": "nonpayable",
      "type": "function"
    },
    {
      "constant": false,
      "inputs": [
        {
          "name": "_to",
          "type": "address"
        },
        {
          "name": "_value",
          "type": "uint256"
        }
      ],
      "name": "transfer",
      "outputs": [
        {
          "name": "success",
          "type": "bool"
        }
      ],
      "payable": false,
      "stateMutability": "nonpayable",
      "type": "function"
    },
    {
      "constant": true,
      "inputs": [
        {
          "name": "",
          "type": "address"
        },
        {
          "name": "",
          "type": "address"
        }
      ],
      "name": "allowance",
      "outputs": [
        {
          "name": "",
          "type": "uint256"
        }
      ],
      "payable": false,
      "stateMutability": "view",
      "type": "function"
    },
    {
      "inputs": [],
      "payable": false,
      "stateMutability": "nonpayable",
      "type": "constructor"
    },
    {
      "anonymous": false,
      "inputs": [
        {
          "indexed": true,
          "name": "_from",
          "type": "address"
        },
        {
          "indexed": true,
          "name": "_to",
          "type": "address"
        },
        {
          "indexed": false,
          "name": "_value",
          "type": "uint256"
        }
      ],
      "name": "Transfer",
      "type": "event"
    },
    {
      "anonymous": false,
      "inputs": [
        {
          "indexed": true,
          "name": "_owner",
          "type": "address"
        },
        {
          "indexed": true,
          "name": "_spender",
          "type": "address"
        },
        {
          "indexed": false,
          "name": "_value",
          "type": "uint256"
        }
      ],
      "name": "Approval",
      "type": "event"
    },
    {
      "anonymous": false,
      "inputs": [
        {
          "indexed": false,
          "name": "_amount",
          "type": "uint256"
        }
      ],
      "name": "Issuance",
      "type": "event"
    },
    {
      "anonymous": false,
      "inputs": [
        {
          "indexed": false,
          "name": "_amount",
          "type": "uint256"
        }
      ],
      "name": "Consumption",
      "type": "event"
    }
  ],
  "bytecode": "0x60606040526040805190810160405280600a81526020017f4368756e67546f6b656e000000000000000000000000000000000000000000008152506000908051906020019061004f9291906100cd565b506040805190810160405280600381526020017f43485500000000000000000000000000000000000000000000000000000000008152506001908051906020019061009b9291906100cd565b506012600260006101000a81548160ff021916908360ff160217905550600060035534156100c857600080fd5b610172565b828054600181600116156101000203166002900490600052602060002090601f016020900481019282601f1061010e57805160ff191683800117855561013c565b8280016001018555821561013c579182015b8281111561013b578251825591602001919060010190610120565b5b509050610149919061014d565b5090565b61016f91905b8082111561016b576000816000905550600101610153565b5090565b90565b610d87806101816000396000f3006060604052600436106100c5576000357c0100000000000000000000000000000000000000000000000000000000900463ffffffff16806306fdde03146100ca578063095ea7b31461015857806318160ddd146101b2578063224b5c72146101db57806323b872dd1461021d578063313ce5671461029657806350422c62146102c557806370a0823114610307578063867904b41461035457806395d89b4114610396578063981d518e14610424578063a9059cbb1461045d578063dd62ed3e146104b7575b600080fd5b34156100d557600080fd5b6100dd610523565b6040518080602001828103825283818151815260200191508051906020019080838360005b8381101561011d578082015181840152602081019050610102565b50505050905090810190601f16801561014a5780820380516001836020036101000a031916815260200191505b509250505060405180910390f35b341561016357600080fd5b610198600480803573ffffffffffffffffffffffffffffffffffffffff169060200190919080359060200190919050506105c1565b604051808215151515815260200191505060405180910390f35b34156101bd57600080fd5b6101c56106b3565b6040518082815260200191505060405180910390f35b34156101e657600080fd5b61021b600480803573ffffffffffffffffffffffffffffffffffffffff169060200190919080359060200190919050506106b9565b005b341561022857600080fd5b61027c600480803573ffffffffffffffffffffffffffffffffffffffff1690602001909190803573ffffffffffffffffffffffffffffffffffffffff169060200190919080359060200190919050506107b6565b604051808215151515815260200191505060405180910390f35b34156102a157600080fd5b6102a96108c2565b604051808260ff1660ff16815260200191505060405180910390f35b34156102d057600080fd5b610305600480803573ffffffffffffffffffffffffffffffffffffffff169060200190919080359060200190919050506108d5565b005b341561031257600080fd5b61033e600480803573ffffffffffffffffffffffffffffffffffffffff169060200190919050506109a6565b6040518082815260200191505060405180910390f35b341561035f57600080fd5b610394600480803573ffffffffffffffffffffffffffffffffffffffff169060200190919080359060200190919050506109be565b005b34156103a157600080fd5b6103a9610abb565b6040518080602001828103825283818151815260200191508051906020019080838360005b838110156103e95780820151818401526020810190506103ce565b50505050905090810190601f1680156104165780820380516001836020036101000a031916815260200191505b509250505060405180910390f35b341561042f57600080fd5b61045b600480803573ffffffffffffffffffffffffffffffffffffffff16906020019091905050610b59565b005b341561046857600080fd5b61049d600480803573ffffffffffffffffffffffffffffffffffffffff16906020019091908035906020019091905050610c2b565b604051808215151515815260200191505060405180910390f35b34156104c257600080fd5b61050d600480803573ffffffffffffffffffffffffffffffffffffffff1690602001909190803573ffffffffffffffffffffffffffffffffffffffff16906020019091905050610d36565b6040518082815260200191505060405180910390f35b60008054600181600116156101000203166002900480601f0160208091040260200160405190810160405280929190818152602001828054600181600116156101000203166002900480156105b95780601f1061058e576101008083540402835291602001916105b9565b820191906000526020600020905b81548152906001019060200180831161059c57829003601f168201915b505050505081565b600081600560003373ffffffffffffffffffffffffffffffffffffffff1673ffffffffffffffffffffffffffffffffffffffff16815260200190815260200160002060008573ffffffffffffffffffffffffffffffffffffffff1673ffffffffffffffffffffffffffffffffffffffff168152602001908152602001600020819055508273ffffffffffffffffffffffffffffffffffffffff163373ffffffffffffffffffffffffffffffffffffffff167f8c5be1e5ebec7d5bd14f71427d1e84f3dd0314c0f7b2291e5b200ac8c7c3b925846040518082815260200191505060405180910390a36001905092915050565b60035481565b80600460008473ffffffffffffffffffffffffffffffffffffffff1673ffffffffffffffffffffffffffffffffffffffff16815260200190815260200160002060008282540392505081905550806003600082825403925050819055503073ffffffffffffffffffffffffffffffffffffffff168273ffffffffffffffffffffffffffffffffffffffff167fddf252ad1be2c89b69c2b068fc378daa952ba7f163c4a11628f55a4df523b3ef836040518082815260200191505060405180910390a37ff34237480e0044a2e99d611a483eefd58f46ebb7d58e3de4c43c35ef67c3a239816040518082815260200191505060405180910390a15050565b600081600460008673ffffffffffffffffffffffffffffffffffffffff1673ffffffffffffffffffffffffffffffffffffffff1681526020019081526020016000206000828254039250508190555081600460008573ffffffffffffffffffffffffffffffffffffffff1673ffffffffffffffffffffffffffffffffffffffff168152602001908152602001600020600082825401925050819055508273ffffffffffffffffffffffffffffffffffffffff168473ffffffffffffffffffffffffffffffffffffffff167fddf252ad1be2c89b69c2b068fc378daa952ba7f163c4a11628f55a4df523b3ef846040518082815260200191505060405180910390a3600190509392505050565b600260009054906101000a900460ff1681565b60008290508073ffffffffffffffffffffffffffffffffffffffff16630874ea5430846000604051602001526040518363ffffffff167c0100000000000000000000000000000000000000000000000000000000028152600401808373ffffffffffffffffffffffffffffffffffffffff1673ffffffffffffffffffffffffffffffffffffffff16815260200182815260200192505050602060405180830381600087803b151561098557600080fd5b6102c65a03f1151561099657600080fd5b5050506040518051905050505050565b60046020528060005260406000206000915090505481565b8060036000828254019250508190555080600460008473ffffffffffffffffffffffffffffffffffffffff1673ffffffffffffffffffffffffffffffffffffffff168152602001908152602001600020600082825401925050819055507f9386c90217c323f58030f9dadcbc938f807a940f4ff41cd4cead9562f5da7dc3816040518082815260200191505060405180910390a18173ffffffffffffffffffffffffffffffffffffffff163073ffffffffffffffffffffffffffffffffffffffff167fddf252ad1be2c89b69c2b068fc378daa952ba7f163c4a11628f55a4df523b3ef836040518082815260200191505060405180910390a35050565b60018054600181600116156101000203166002900480601f016020809104026020016040519081016040528092919081815260200182805460018160011615610100020316600290048015610b515780601f10610b2657610100808354040283529160200191610b51565b820191906000526020600020905b815481529060010190602001808311610b3457829003601f168201915b505050505081565b60008190508073ffffffffffffffffffffffffffffffffffffffff1663b4d8cedc306003546000604051602001526040518363ffffffff167c0100000000000000000000000000000000000000000000000000000000028152600401808373ffffffffffffffffffffffffffffffffffffffff1673ffffffffffffffffffffffffffffffffffffffff16815260200182815260200192505050602060405180830381600087803b1515610c0b57600080fd5b6102c65a03f11515610c1c57600080fd5b50505060405180519050505050565b600081600460003373ffffffffffffffffffffffffffffffffffffffff1673ffffffffffffffffffffffffffffffffffffffff1681526020019081526020016000206000828254039250508190555081600460008573ffffffffffffffffffffffffffffffffffffffff1673ffffffffffffffffffffffffffffffffffffffff168152602001908152602001600020600082825401925050819055508273ffffffffffffffffffffffffffffffffffffffff163373ffffffffffffffffffffffffffffffffffffffff167fddf252ad1be2c89b69c2b068fc378daa952ba7f163c4a11628f55a4df523b3ef846040518082815260200191505060405180910390a36001905092915050565b60056020528160005260406000206020528060005260406000206000915091505054815600a165627a7a723058206fd60cd13f4cfde5997b10e9983761516299a211ca506ec44c17d1060a64cbdd0029",
  "source": "pragma solidity ^0.4.11;\r\nimport './IERC20Token.sol';\r\nimport './PricingModel.sol';\r\n\r\n/**\r\n    ERC20 Standard Token implementation\r\n*/\r\ncontract ChungToken is IERC20Token{\r\n    string public name = 'ChungToken';\r\n    string public symbol = 'CHU';\r\n    uint8 public decimals = 18;\r\n    uint256 public totalSupply = 0;\r\n\r\n    mapping (address => uint256) public balanceOf;\r\n    mapping (address => mapping (address => uint256)) public allowance;\r\n\r\n    event Transfer(address indexed _from, address indexed _to, uint256 _value);\r\n    event Approval(address indexed _owner, address indexed _spender, uint256 _value);\r\n\r\n    // triggered when the total supply is increased\r\n    event Issuance(uint256 _amount);\r\n    // triggered when the total supply is decreased\r\n    event Consumption(uint256 _amount);\r\n\r\n    /**\r\n        @dev constructor\r\n    */\r\n\r\n    function ChungToken() {\r\n\r\n    }\r\n    \r\n    function issue(address _to, uint256 _amount) public {\r\n        totalSupply += _amount;\r\n        balanceOf[_to] += _amount;\r\n\r\n        Issuance(_amount);\r\n        Transfer(this, _to, _amount);\r\n    }\r\n\r\n    function consume(address _from, uint256 _amount) public {\r\n        balanceOf[_from] -= _amount;\r\n        totalSupply -= _amount;\r\n\r\n        Transfer(_from, this, _amount);\r\n        Consumption(_amount);\r\n    }\r\n\r\n\r\n    function setSupplyToPricingModel(address pricingModelAddr) public {\r\n        var pricingModel = PricingModel(pricingModelAddr);\r\n        pricingModel.setSupply(this, totalSupply);\r\n    }\r\n\r\n\r\n    function setVolumeToPricingModel(address pricingModelAddr, uint256 _amount) public {\r\n        var pricingModel = PricingModel(pricingModelAddr);\r\n        pricingModel.setVolume(this, _amount);\r\n    }\r\n\r\n    /**\r\n        @dev send coins\r\n        throws on any error rather then return a false flag to minimize user errors\r\n\r\n        @param _to      target address\r\n        @param _value   transfer amount\r\n\r\n        @return true if the transfer was successful, false if it wasn't\r\n    */\r\n    function transfer(address _to, uint256 _value) public returns (bool success) {\r\n        balanceOf[msg.sender] -= _value;\r\n        balanceOf[_to] += _value;\r\n\r\n        Transfer(msg.sender, _to, _value);\r\n        return true;\r\n    }\r\n\r\n    /**\r\n        @dev an account/contract attempts to get the coins\r\n        throws on any error rather then return a false flag to minimize user errors\r\n\r\n        @param _from    source address\r\n        @param _to      target address\r\n        @param _value   transfer amount\r\n\r\n        @return true if the transfer was successful, false if it wasn't\r\n    */\r\n    function transferFrom(address _from, address _to, uint256 _value) public returns (bool success) {\r\n        //allowance[_from][msg.sender] -= _value;\r\n        balanceOf[_from] -= _value;\r\n        balanceOf[_to] += _value;\r\n\r\n        Transfer(_from, _to, _value);\r\n        return true;\r\n    }\r\n\r\n    /**\r\n        @dev allow another account/contract to spend some tokens on your behalf\r\n        throws on any error rather then return a false flag to minimize user errors\r\n\r\n        also, to minimize the risk of the approve/transferFrom attack vector\r\n        (see https://docs.google.com/document/d/1YLPtQxZu1UAvO9cZ1O2RPXBbT0mooh4DYKjA_jp-RLM/), approve has to be called twice\r\n        in 2 separate transactions - once to change the allowance to 0 and secondly to change it to the new allowance value\r\n\r\n        @param _spender approved address\r\n        @param _value   allowance amount\r\n\r\n        @return true if the approval was successful, false if it wasn't\r\n    */\r\n    function approve(address _spender, uint256 _value) public returns (bool success) {\r\n        allowance[msg.sender][_spender] = _value;\r\n        Approval(msg.sender, _spender, _value);\r\n        return true;\r\n    }\r\n}\r\n",
  "sourcePath": "/home/david/eth_project/my_project_npm/contracts/ChungToken.sol",
  "compiler": {
    "name": "solc",
    "version": "0.4.18+commit.9cf6e910.Emscripten.clang"
  },
  "schemaVersion": "1.0.1",
  "updatedAt": "2017-12-21T14:45:43.348Z"
}