{
  "contractName": "DavidToken",
  "abi": [
    {
      "constant": true,
      "inputs": [],
      "name": "name",
      "outputs": [
        {
          "name": "",
          "type": "string"
        }
      ],
      "payable": false,
      "stateMutability": "view",
      "type": "function"
    },
    {
      "constant": false,
      "inputs": [
        {
          "name": "_spender",
          "type": "address"
        },
        {
          "name": "_value",
          "type": "uint256"
        }
      ],
      "name": "approve",
      "outputs": [
        {
          "name": "success",
          "type": "bool"
        }
      ],
      "payable": false,
      "stateMutability": "nonpayable",
      "type": "function"
    },
    {
      "constant": true,
      "inputs": [],
      "name": "totalSupply",
      "outputs": [
        {
          "name": "",
          "type": "uint256"
        }
      ],
      "payable": false,
      "stateMutability": "view",
      "type": "function"
    },
    {
      "constant": false,
      "inputs": [
        {
          "name": "_from",
          "type": "address"
        },
        {
          "name": "_amount",
          "type": "uint256"
        }
      ],
      "name": "consume",
      "outputs": [],
      "payable": false,
      "stateMutability": "nonpayable",
      "type": "function"
    },
    {
      "constant": false,
      "inputs": [
        {
          "name": "_from",
          "type": "address"
        },
        {
          "name": "_to",
          "type": "address"
        },
        {
          "name": "_value",
          "type": "uint256"
        }
      ],
      "name": "transferFrom",
      "outputs": [
        {
          "name": "success",
          "type": "bool"
        }
      ],
      "payable": false,
      "stateMutability": "nonpayable",
      "type": "function"
    },
    {
      "constant": true,
      "inputs": [],
      "name": "decimals",
      "outputs": [
        {
          "name": "",
          "type": "uint8"
        }
      ],
      "payable": false,
      "stateMutability": "view",
      "type": "function"
    },
    {
      "constant": true,
      "inputs": [],
      "name": "pricingModelAddr",
      "outputs": [
        {
          "name": "",
          "type": "address"
        }
      ],
      "payable": false,
      "stateMutability": "view",
      "type": "function"
    },
    {
      "constant": false,
      "inputs": [],
      "name": "setSupplyToPricingModel",
      "outputs": [],
      "payable": false,
      "stateMutability": "nonpayable",
      "type": "function"
    },
    {
      "constant": true,
      "inputs": [
        {
          "name": "",
          "type": "address"
        }
      ],
      "name": "balanceOf",
      "outputs": [
        {
          "name": "",
          "type": "uint256"
        }
      ],
      "payable": false,
      "stateMutability": "view",
      "type": "function"
    },
    {
      "constant": false,
      "inputs": [
        {
          "name": "_to",
          "type": "address"
        },
        {
          "name": "_amount",
          "type": "uint256"
        }
      ],
      "name": "issue",
      "outputs": [],
      "payable": false,
      "stateMutability": "nonpayable",
      "type": "function"
    },
    {
      "constant": true,
      "inputs": [],
      "name": "symbol",
      "outputs": [
        {
          "name": "",
          "type": "string"
        }
      ],
      "payable": false,
      "stateMutability": "view",
      "type": "function"
    },
    {
      "constant": false,
      "inputs": [
        {
          "name": "_to",
          "type": "address"
        },
        {
          "name": "_value",
          "type": "uint256"
        }
      ],
      "name": "transfer",
      "outputs": [
        {
          "name": "success",
          "type": "bool"
        }
      ],
      "payable": false,
      "stateMutability": "nonpayable",
      "type": "function"
    },
    {
      "constant": false,
      "inputs": [
        {
          "name": "_amount",
          "type": "uint256"
        }
      ],
      "name": "setVolumeToPricingModel",
      "outputs": [],
      "payable": false,
      "stateMutability": "nonpayable",
      "type": "function"
    },
    {
      "constant": true,
      "inputs": [],
      "name": "getpricingModelAddr",
      "outputs": [
        {
          "name": "",
          "type": "address"
        }
      ],
      "payable": false,
      "stateMutability": "view",
      "type": "function"
    },
    {
      "constant": true,
      "inputs": [
        {
          "name": "",
          "type": "address"
        },
        {
          "name": "",
          "type": "address"
        }
      ],
      "name": "allowance",
      "outputs": [
        {
          "name": "",
          "type": "uint256"
        }
      ],
      "payable": false,
      "stateMutability": "view",
      "type": "function"
    },
    {
      "inputs": [
        {
          "name": "_pricingModelAddr",
          "type": "address"
        }
      ],
      "payable": false,
      "stateMutability": "nonpayable",
      "type": "constructor"
    },
    {
      "anonymous": false,
      "inputs": [
        {
          "indexed": true,
          "name": "_from",
          "type": "address"
        },
        {
          "indexed": true,
          "name": "_to",
          "type": "address"
        },
        {
          "indexed": false,
          "name": "_value",
          "type": "uint256"
        }
      ],
      "name": "Transfer",
      "type": "event"
    },
    {
      "anonymous": false,
      "inputs": [
        {
          "indexed": true,
          "name": "_owner",
          "type": "address"
        },
        {
          "indexed": true,
          "name": "_spender",
          "type": "address"
        },
        {
          "indexed": false,
          "name": "_value",
          "type": "uint256"
        }
      ],
      "name": "Approval",
      "type": "event"
    },
    {
      "anonymous": false,
      "inputs": [
        {
          "indexed": false,
          "name": "_amount",
          "type": "uint256"
        }
      ],
      "name": "Issuance",
      "type": "event"
    },
    {
      "anonymous": false,
      "inputs": [
        {
          "indexed": false,
          "name": "_amount",
          "type": "uint256"
        }
      ],
      "name": "Consumption",
      "type": "event"
    }
  ],
  "bytecode": "0x60606040526040805190810160405280600a81526020017f4461766964546f6b656e00000000000000000000000000000000000000000000815250600090805190602001906200005192919062000132565b506040805190810160405280600381526020017f4441560000000000000000000000000000000000000000000000000000000000815250600190805190602001906200009f92919062000132565b506012600260006101000a81548160ff021916908360ff16021790555060006003553415620000cd57600080fd5b6040516020806200116d8339810160405280805190602001909190505080600660006101000a81548173ffffffffffffffffffffffffffffffffffffffff021916908373ffffffffffffffffffffffffffffffffffffffff16021790555050620001e1565b828054600181600116156101000203166002900490600052602060002090601f016020900481019282601f106200017557805160ff1916838001178555620001a6565b82800160010185558215620001a6579182015b82811115620001a557825182559160200191906001019062000188565b5b509050620001b59190620001b9565b5090565b620001de91905b80821115620001da576000816000905550600101620001c0565b5090565b90565b610f7c80620001f16000396000f3006060604052600436106100db576000357c0100000000000000000000000000000000000000000000000000000000900463ffffffff16806306fdde03146100e0578063095ea7b31461016e57806318160ddd146101c8578063224b5c72146101f157806323b872dd14610233578063313ce567146102ac578063596fab7f146102db5780635ffcbc1c1461033057806370a0823114610345578063867904b41461039257806395d89b41146103d4578063a9059cbb14610462578063a9665864146104bc578063bdf0c013146104df578063dd62ed3e14610534575b600080fd5b34156100eb57600080fd5b6100f36105a0565b6040518080602001828103825283818151815260200191508051906020019080838360005b83811015610133578082015181840152602081019050610118565b50505050905090810190601f1680156101605780820380516001836020036101000a031916815260200191505b509250505060405180910390f35b341561017957600080fd5b6101ae600480803573ffffffffffffffffffffffffffffffffffffffff1690602001909190803590602001909190505061063e565b604051808215151515815260200191505060405180910390f35b34156101d357600080fd5b6101db610730565b6040518082815260200191505060405180910390f35b34156101fc57600080fd5b610231600480803573ffffffffffffffffffffffffffffffffffffffff16906020019091908035906020019091905050610736565b005b341561023e57600080fd5b610292600480803573ffffffffffffffffffffffffffffffffffffffff1690602001909190803573ffffffffffffffffffffffffffffffffffffffff1690602001909190803590602001909190505061083b565b604051808215151515815260200191505060405180910390f35b34156102b757600080fd5b6102bf610950565b604051808260ff1660ff16815260200191505060405180910390f35b34156102e657600080fd5b6102ee610963565b604051808273ffffffffffffffffffffffffffffffffffffffff1673ffffffffffffffffffffffffffffffffffffffff16815260200191505060405180910390f35b341561033b57600080fd5b610343610989565b005b341561035057600080fd5b61037c600480803573ffffffffffffffffffffffffffffffffffffffff16906020019091905050610a7c565b6040518082815260200191505060405180910390f35b341561039d57600080fd5b6103d2600480803573ffffffffffffffffffffffffffffffffffffffff16906020019091908035906020019091905050610a94565b005b34156103df57600080fd5b6103e7610b99565b6040518080602001828103825283818151815260200191508051906020019080838360005b8381101561042757808201518184015260208101905061040c565b50505050905090810190601f1680156104545780820380516001836020036101000a031916815260200191505b509250505060405180910390f35b341561046d57600080fd5b6104a2600480803573ffffffffffffffffffffffffffffffffffffffff16906020019091908035906020019091905050610c37565b604051808215151515815260200191505060405180910390f35b34156104c757600080fd5b6104dd6004808035906020019091905050610d4b565b005b34156104ea57600080fd5b6104f2610f01565b604051808273ffffffffffffffffffffffffffffffffffffffff1673ffffffffffffffffffffffffffffffffffffffff16815260200191505060405180910390f35b341561053f57600080fd5b61058a600480803573ffffffffffffffffffffffffffffffffffffffff1690602001909190803573ffffffffffffffffffffffffffffffffffffffff16906020019091905050610f2b565b6040518082815260200191505060405180910390f35b60008054600181600116156101000203166002900480601f0160208091040260200160405190810160405280929190818152602001828054600181600116156101000203166002900480156106365780601f1061060b57610100808354040283529160200191610636565b820191906000526020600020905b81548152906001019060200180831161061957829003601f168201915b505050505081565b600081600560003373ffffffffffffffffffffffffffffffffffffffff1673ffffffffffffffffffffffffffffffffffffffff16815260200190815260200160002060008573ffffffffffffffffffffffffffffffffffffffff1673ffffffffffffffffffffffffffffffffffffffff168152602001908152602001600020819055508273ffffffffffffffffffffffffffffffffffffffff163373ffffffffffffffffffffffffffffffffffffffff167f8c5be1e5ebec7d5bd14f71427d1e84f3dd0314c0f7b2291e5b200ac8c7c3b925846040518082815260200191505060405180910390a36001905092915050565b60035481565b80600460008473ffffffffffffffffffffffffffffffffffffffff1673ffffffffffffffffffffffffffffffffffffffff168152602001908152602001600020600082825403925050819055508060036000828254039250508190555061079b610989565b3073ffffffffffffffffffffffffffffffffffffffff168273ffffffffffffffffffffffffffffffffffffffff167fddf252ad1be2c89b69c2b068fc378daa952ba7f163c4a11628f55a4df523b3ef836040518082815260200191505060405180910390a37ff34237480e0044a2e99d611a483eefd58f46ebb7d58e3de4c43c35ef67c3a239816040518082815260200191505060405180910390a15050565b600081600460008673ffffffffffffffffffffffffffffffffffffffff1673ffffffffffffffffffffffffffffffffffffffff1681526020019081526020016000206000828254039250508190555081600460008573ffffffffffffffffffffffffffffffffffffffff1673ffffffffffffffffffffffffffffffffffffffff168152602001908152602001600020600082825401925050819055506108e082610d4b565b8273ffffffffffffffffffffffffffffffffffffffff168473ffffffffffffffffffffffffffffffffffffffff167fddf252ad1be2c89b69c2b068fc378daa952ba7f163c4a11628f55a4df523b3ef846040518082815260200191505060405180910390a3600190509392505050565b600260009054906101000a900460ff1681565b600660009054906101000a900473ffffffffffffffffffffffffffffffffffffffff1681565b6000600660009054906101000a900473ffffffffffffffffffffffffffffffffffffffff1690508073ffffffffffffffffffffffffffffffffffffffff1663b4d8cedc306003546000604051602001526040518363ffffffff167c0100000000000000000000000000000000000000000000000000000000028152600401808373ffffffffffffffffffffffffffffffffffffffff1673ffffffffffffffffffffffffffffffffffffffff16815260200182815260200192505050602060405180830381600087803b1515610a5d57600080fd5b6102c65a03f11515610a6e57600080fd5b505050604051805190505050565b60046020528060005260406000206000915090505481565b8060036000828254019250508190555080600460008473ffffffffffffffffffffffffffffffffffffffff1673ffffffffffffffffffffffffffffffffffffffff16815260200190815260200160002060008282540192505081905550610af9610989565b7f9386c90217c323f58030f9dadcbc938f807a940f4ff41cd4cead9562f5da7dc3816040518082815260200191505060405180910390a18173ffffffffffffffffffffffffffffffffffffffff163073ffffffffffffffffffffffffffffffffffffffff167fddf252ad1be2c89b69c2b068fc378daa952ba7f163c4a11628f55a4df523b3ef836040518082815260200191505060405180910390a35050565b60018054600181600116156101000203166002900480601f016020809104026020016040519081016040528092919081815260200182805460018160011615610100020316600290048015610c2f5780601f10610c0457610100808354040283529160200191610c2f565b820191906000526020600020905b815481529060010190602001808311610c1257829003601f168201915b505050505081565b600081600460003373ffffffffffffffffffffffffffffffffffffffff1673ffffffffffffffffffffffffffffffffffffffff1681526020019081526020016000206000828254039250508190555081600460008573ffffffffffffffffffffffffffffffffffffffff1673ffffffffffffffffffffffffffffffffffffffff16815260200190815260200160002060008282540192505081905550610cdc82610d4b565b8273ffffffffffffffffffffffffffffffffffffffff163373ffffffffffffffffffffffffffffffffffffffff167fddf252ad1be2c89b69c2b068fc378daa952ba7f163c4a11628f55a4df523b3ef846040518082815260200191505060405180910390a36001905092915050565b600080600660009054906101000a900473ffffffffffffffffffffffffffffffffffffffff169150828273ffffffffffffffffffffffffffffffffffffffff16638ba17f86306000604051602001526040518263ffffffff167c0100000000000000000000000000000000000000000000000000000000028152600401808273ffffffffffffffffffffffffffffffffffffffff1673ffffffffffffffffffffffffffffffffffffffff168152602001915050602060405180830381600087803b1515610e1757600080fd5b6102c65a03f11515610e2857600080fd5b505050604051805190500190508173ffffffffffffffffffffffffffffffffffffffff16630874ea5430836000604051602001526040518363ffffffff167c0100000000000000000000000000000000000000000000000000000000028152600401808373ffffffffffffffffffffffffffffffffffffffff1673ffffffffffffffffffffffffffffffffffffffff16815260200182815260200192505050602060405180830381600087803b1515610ee057600080fd5b6102c65a03f11515610ef157600080fd5b5050506040518051905050505050565b6000600660009054906101000a900473ffffffffffffffffffffffffffffffffffffffff16905090565b60056020528160005260406000206020528060005260406000206000915091505054815600a165627a7a72305820a2203731251edf3dec06e18158de1a05aa9af01ea1946b47a7d2dbf95bc842610029",
  "source": "pragma solidity ^0.4.11;\r\nimport './IERC20Token.sol';\r\nimport './PricingModel.sol';\r\nimport './Wallet.sol';\r\n\r\n/**\r\n    ERC20 Standard Token implementation\r\n*/\r\ncontract DavidToken is IERC20Token{\r\n    string public name = 'DavidToken';\r\n    string public symbol = 'DAV';\r\n    uint8 public decimals = 18;\r\n    uint256 public totalSupply = 0;\r\n\r\n    mapping (address => uint256) public balanceOf;\r\n    mapping (address => mapping (address => uint256)) public allowance;\r\n\r\n    event Transfer(address indexed _from, address indexed _to, uint256 _value);\r\n    event Approval(address indexed _owner, address indexed _spender, uint256 _value);\r\n\r\n    // triggered when the total supply is increased\r\n    event Issuance(uint256 _amount);\r\n    // triggered when the total supply is decreased\r\n    event Consumption(uint256 _amount);\r\n\r\n    address public pricingModelAddr;\r\n    //address public walletAddr;\r\n\r\n    /**\r\n        @dev constructor\r\n    */\r\n\r\n    function DavidToken(address _pricingModelAddr) {\r\n        pricingModelAddr = _pricingModelAddr;\r\n        //walletAddr = _walletAddr;\r\n    }\r\n    \r\n    function getpricingModelAddr() constant returns(address) {\r\n        return pricingModelAddr;\r\n    }\r\n\r\n    function issue(address _to, uint256 _amount) public {\r\n        totalSupply += _amount;\r\n        balanceOf[_to] += _amount;\r\n\r\n        setSupplyToPricingModel();\r\n\r\n        Issuance(_amount);\r\n        Transfer(this, _to, _amount);\r\n\r\n    }\r\n\r\n    function consume(address _from, uint256 _amount) public {\r\n        balanceOf[_from] -= _amount;\r\n        totalSupply -= _amount;\r\n\r\n        setSupplyToPricingModel();\r\n\r\n        Transfer(_from, this, _amount);\r\n        Consumption(_amount);\r\n    }\r\n\r\n/*\r\n    function setTokenToWallet(address _account) public {\r\n        var wallet = Wallet(walletAddr);\r\n        wallet.addToken(_account, this);\r\n    }\r\n*/\r\n\r\n    function setSupplyToPricingModel() public {\r\n        var pricingModel = PricingModel(pricingModelAddr);\r\n        pricingModel.setSupply(this, totalSupply);\r\n    }\r\n\r\n\r\n    function setVolumeToPricingModel(uint256 _amount) public {\r\n        var pricingModel = PricingModel(pricingModelAddr);\r\n\r\n        //Add transfer volume\r\n        var volume_new = pricingModel.getVolume(this) + _amount;\r\n\r\n        pricingModel.setVolume(this, volume_new);\r\n    }\r\n\r\n    /**\r\n        @dev send coins\r\n        throws on any error rather then return a false flag to minimize user errors\r\n\r\n        @param _to      target address\r\n        @param _value   transfer amount\r\n\r\n        @return true if the transfer was successful, false if it wasn't\r\n    */\r\n    function transfer(address _to, uint256 _value) public returns (bool success) {\r\n        balanceOf[msg.sender] -= _value;\r\n        balanceOf[_to] += _value;\r\n\r\n        setVolumeToPricingModel(_value);\r\n\r\n        Transfer(msg.sender, _to, _value);\r\n        return true;\r\n    }\r\n\r\n    /**\r\n        @dev an account/contract attempts to get the coins\r\n        throws on any error rather then return a false flag to minimize user errors\r\n\r\n        @param _from    source address\r\n        @param _to      target address\r\n        @param _value   transfer amount\r\n\r\n        @return true if the transfer was successful, false if it wasn't\r\n    */\r\n    function transferFrom(address _from, address _to, uint256 _value) public returns (bool success) {\r\n        //allowance[_from][msg.sender] -= _value;\r\n        balanceOf[_from] -= _value;\r\n        balanceOf[_to] += _value;\r\n\r\n        setVolumeToPricingModel(_value);\r\n\r\n        Transfer(_from, _to, _value);\r\n        return true;\r\n    }\r\n\r\n    /**\r\n        @dev allow another account/contract to spend some tokens on your behalf\r\n        throws on any error rather then return a false flag to minimize user errors\r\n\r\n        also, to minimize the risk of the approve/transferFrom attack vector\r\n        (see https://docs.google.com/document/d/1YLPtQxZu1UAvO9cZ1O2RPXBbT0mooh4DYKjA_jp-RLM/), approve has to be called twice\r\n        in 2 separate transactions - once to change the allowance to 0 and secondly to change it to the new allowance value\r\n\r\n        @param _spender approved address\r\n        @param _value   allowance amount\r\n\r\n        @return true if the approval was successful, false if it wasn't\r\n    */\r\n    function approve(address _spender, uint256 _value) public returns (bool success) {\r\n        allowance[msg.sender][_spender] = _value;\r\n        Approval(msg.sender, _spender, _value);\r\n        return true;\r\n    }\r\n}\r\n",
  "sourcePath": "/home/david/eth_project/my_project_npm/contracts/DavidToken.sol",
  "compiler": {
    "name": "solc",
    "version": "0.4.18+commit.9cf6e910.Emscripten.clang"
  },
  "schemaVersion": "1.0.1",
  "updatedAt": "2017-12-21T14:45:43.320Z"
}