{
  "contractName": "PricingModel",
  "abi": [
    {
      "constant": false,
      "inputs": [
        {
          "name": "token",
          "type": "address"
        },
        {
          "name": "_amount",
          "type": "uint256"
        }
      ],
      "name": "setVolume",
      "outputs": [
        {
          "name": "",
          "type": "bool"
        }
      ],
      "payable": false,
      "stateMutability": "nonpayable",
      "type": "function"
    },
    {
      "constant": true,
      "inputs": [
        {
          "name": "token",
          "type": "address"
        }
      ],
      "name": "getSupply",
      "outputs": [
        {
          "name": "",
          "type": "uint256"
        }
      ],
      "payable": false,
      "stateMutability": "view",
      "type": "function"
    },
    {
      "constant": false,
      "inputs": [
        {
          "name": "token",
          "type": "address"
        },
        {
          "name": "_amount",
          "type": "uint256"
        }
      ],
      "name": "setVelocity",
      "outputs": [
        {
          "name": "",
          "type": "bool"
        }
      ],
      "payable": false,
      "stateMutability": "nonpayable",
      "type": "function"
    },
    {
      "constant": true,
      "inputs": [
        {
          "name": "",
          "type": "address"
        }
      ],
      "name": "tokenVelocity",
      "outputs": [
        {
          "name": "",
          "type": "uint256"
        }
      ],
      "payable": false,
      "stateMutability": "view",
      "type": "function"
    },
    {
      "constant": true,
      "inputs": [
        {
          "name": "source",
          "type": "address"
        },
        {
          "name": "dest",
          "type": "address"
        }
      ],
      "name": "getRate",
      "outputs": [
        {
          "name": "",
          "type": "uint256"
        }
      ],
      "payable": false,
      "stateMutability": "view",
      "type": "function"
    },
    {
      "constant": false,
      "inputs": [
        {
          "name": "token",
          "type": "address"
        }
      ],
      "name": "setPrice",
      "outputs": [
        {
          "name": "",
          "type": "bool"
        }
      ],
      "payable": false,
      "stateMutability": "nonpayable",
      "type": "function"
    },
    {
      "constant": true,
      "inputs": [
        {
          "name": "token",
          "type": "address"
        }
      ],
      "name": "getPrice",
      "outputs": [
        {
          "name": "",
          "type": "uint256"
        }
      ],
      "payable": false,
      "stateMutability": "view",
      "type": "function"
    },
    {
      "constant": true,
      "inputs": [
        {
          "name": "token",
          "type": "address"
        }
      ],
      "name": "getVelocity",
      "outputs": [
        {
          "name": "",
          "type": "uint256"
        }
      ],
      "payable": false,
      "stateMutability": "view",
      "type": "function"
    },
    {
      "constant": false,
      "inputs": [
        {
          "name": "source",
          "type": "address"
        },
        {
          "name": "dest",
          "type": "address"
        }
      ],
      "name": "setRate",
      "outputs": [
        {
          "name": "",
          "type": "bool"
        }
      ],
      "payable": false,
      "stateMutability": "nonpayable",
      "type": "function"
    },
    {
      "constant": true,
      "inputs": [
        {
          "name": "",
          "type": "address"
        }
      ],
      "name": "tokenPrice",
      "outputs": [
        {
          "name": "",
          "type": "uint256"
        }
      ],
      "payable": false,
      "stateMutability": "view",
      "type": "function"
    },
    {
      "constant": true,
      "inputs": [
        {
          "name": "token",
          "type": "address"
        }
      ],
      "name": "getVolume",
      "outputs": [
        {
          "name": "",
          "type": "uint256"
        }
      ],
      "payable": false,
      "stateMutability": "view",
      "type": "function"
    },
    {
      "constant": true,
      "inputs": [
        {
          "name": "token",
          "type": "address"
        }
      ],
      "name": "getPriceIndex",
      "outputs": [
        {
          "name": "",
          "type": "uint256"
        }
      ],
      "payable": false,
      "stateMutability": "view",
      "type": "function"
    },
    {
      "constant": false,
      "inputs": [
        {
          "name": "token",
          "type": "address"
        },
        {
          "name": "_amount",
          "type": "uint256"
        }
      ],
      "name": "setSupply",
      "outputs": [
        {
          "name": "",
          "type": "bool"
        }
      ],
      "payable": false,
      "stateMutability": "nonpayable",
      "type": "function"
    },
    {
      "constant": false,
      "inputs": [
        {
          "name": "token",
          "type": "address"
        },
        {
          "name": "_amount",
          "type": "uint256"
        }
      ],
      "name": "setPriceIndex",
      "outputs": [
        {
          "name": "",
          "type": "bool"
        }
      ],
      "payable": false,
      "stateMutability": "nonpayable",
      "type": "function"
    },
    {
      "constant": true,
      "inputs": [
        {
          "name": "",
          "type": "address"
        }
      ],
      "name": "tokenSupply",
      "outputs": [
        {
          "name": "",
          "type": "uint256"
        }
      ],
      "payable": false,
      "stateMutability": "view",
      "type": "function"
    },
    {
      "constant": true,
      "inputs": [
        {
          "name": "",
          "type": "address"
        }
      ],
      "name": "tokenPirceIndex",
      "outputs": [
        {
          "name": "",
          "type": "uint256"
        }
      ],
      "payable": false,
      "stateMutability": "view",
      "type": "function"
    },
    {
      "constant": true,
      "inputs": [
        {
          "name": "",
          "type": "address"
        }
      ],
      "name": "tokenVolume",
      "outputs": [
        {
          "name": "",
          "type": "uint256"
        }
      ],
      "payable": false,
      "stateMutability": "view",
      "type": "function"
    },
    {
      "inputs": [],
      "payable": false,
      "stateMutability": "nonpayable",
      "type": "constructor"
    }
  ],
  "bytecode": "0x6060604052341561000f57600080fd5b610d528061001e6000396000f3006060604052600436106100f1576000357c0100000000000000000000000000000000000000000000000000000000900463ffffffff1680630874ea54146100f65780631fd433aa146101505780632a46f9d01461019d578063344ca3a9146101f7578063379b87ea146102445780633b324790146102b057806341976e091461030157806345c8817a1461034e57806365e9b48d1461039b57806384ba3f691461040b5780638ba17f8614610458578063969c4e88146104a5578063b4d8cedc146104f2578063d923992d1461054c578063e643792e146105a6578063e90f4c7b146105f3578063e922c75c14610640575b600080fd5b341561010157600080fd5b610136600480803573ffffffffffffffffffffffffffffffffffffffff1690602001909190803590602001909190505061068d565b604051808215151515815260200191505060405180910390f35b341561015b57600080fd5b610187600480803573ffffffffffffffffffffffffffffffffffffffff169060200190919050506106dd565b6040518082815260200191505060405180910390f35b34156101a857600080fd5b6101dd600480803573ffffffffffffffffffffffffffffffffffffffff16906020019091908035906020019091905050610726565b604051808215151515815260200191505060405180910390f35b341561020257600080fd5b61022e600480803573ffffffffffffffffffffffffffffffffffffffff16906020019091905050610776565b6040518082815260200191505060405180910390f35b341561024f57600080fd5b61029a600480803573ffffffffffffffffffffffffffffffffffffffff1690602001909190803573ffffffffffffffffffffffffffffffffffffffff1690602001909190505061078e565b6040518082815260200191505060405180910390f35b34156102bb57600080fd5b6102e7600480803573ffffffffffffffffffffffffffffffffffffffff1690602001909190505061084c565b604051808215151515815260200191505060405180910390f35b341561030c57600080fd5b610338600480803573ffffffffffffffffffffffffffffffffffffffff169060200190919050506109ae565b6040518082815260200191505060405180910390f35b341561035957600080fd5b610385600480803573ffffffffffffffffffffffffffffffffffffffff169060200190919050506109f6565b6040518082815260200191505060405180910390f35b34156103a657600080fd5b6103f1600480803573ffffffffffffffffffffffffffffffffffffffff1690602001909190803573ffffffffffffffffffffffffffffffffffffffff16906020019091905050610a3f565b604051808215151515815260200191505060405180910390f35b341561041657600080fd5b610442600480803573ffffffffffffffffffffffffffffffffffffffff16906020019091905050610b94565b6040518082815260200191505060405180910390f35b341561046357600080fd5b61048f600480803573ffffffffffffffffffffffffffffffffffffffff16906020019091905050610bac565b6040518082815260200191505060405180910390f35b34156104b057600080fd5b6104dc600480803573ffffffffffffffffffffffffffffffffffffffff16906020019091905050610bf5565b6040518082815260200191505060405180910390f35b34156104fd57600080fd5b610532600480803573ffffffffffffffffffffffffffffffffffffffff16906020019091908035906020019091905050610c3e565b604051808215151515815260200191505060405180910390f35b341561055757600080fd5b61058c600480803573ffffffffffffffffffffffffffffffffffffffff16906020019091908035906020019091905050610c8e565b604051808215151515815260200191505060405180910390f35b34156105b157600080fd5b6105dd600480803573ffffffffffffffffffffffffffffffffffffffff16906020019091905050610cde565b6040518082815260200191505060405180910390f35b34156105fe57600080fd5b61062a600480803573ffffffffffffffffffffffffffffffffffffffff16906020019091905050610cf6565b6040518082815260200191505060405180910390f35b341561064b57600080fd5b610677600480803573ffffffffffffffffffffffffffffffffffffffff16906020019091905050610d0e565b6040518082815260200191505060405180910390f35b600081600360008573ffffffffffffffffffffffffffffffffffffffff1673ffffffffffffffffffffffffffffffffffffffff168152602001908152602001600020819055506001905092915050565b6000600460008373ffffffffffffffffffffffffffffffffffffffff1673ffffffffffffffffffffffffffffffffffffffff168152602001908152602001600020549050919050565b600081600560008573ffffffffffffffffffffffffffffffffffffffff1673ffffffffffffffffffffffffffffffffffffffff168152602001908152602001600020819055506001905092915050565b60056020528060005260406000206000915090505481565b6000808383604051808373ffffffffffffffffffffffffffffffffffffffff1673ffffffffffffffffffffffffffffffffffffffff166c010000000000000000000000000281526014018273ffffffffffffffffffffffffffffffffffffffff1673ffffffffffffffffffffffffffffffffffffffff166c0100000000000000000000000002815260140192505050604051809103902090506001600082600019166000191681526020019081526020016000205491505092915050565b600080600560008473ffffffffffffffffffffffffffffffffffffffff1673ffffffffffffffffffffffffffffffffffffffff16815260200190815260200160002054600460008573ffffffffffffffffffffffffffffffffffffffff1673ffffffffffffffffffffffffffffffffffffffff16815260200190815260200160002054026103e8600360008673ffffffffffffffffffffffffffffffffffffffff1673ffffffffffffffffffffffffffffffffffffffff16815260200190815260200160002054600260008773ffffffffffffffffffffffffffffffffffffffff1673ffffffffffffffffffffffffffffffffffffffff16815260200190815260200160002054020281151561095e57fe5b049050806000808573ffffffffffffffffffffffffffffffffffffffff1673ffffffffffffffffffffffffffffffffffffffff168152602001908152602001600020819055506001915050919050565b60008060008373ffffffffffffffffffffffffffffffffffffffff1673ffffffffffffffffffffffffffffffffffffffff168152602001908152602001600020549050919050565b6000600560008373ffffffffffffffffffffffffffffffffffffffff1673ffffffffffffffffffffffffffffffffffffffff168152602001908152602001600020549050919050565b60008060008060008573ffffffffffffffffffffffffffffffffffffffff1673ffffffffffffffffffffffffffffffffffffffff168152602001908152602001600020546103e86000808873ffffffffffffffffffffffffffffffffffffffff1673ffffffffffffffffffffffffffffffffffffffff1681526020019081526020016000205402811515610acf57fe5b0491508484604051808373ffffffffffffffffffffffffffffffffffffffff1673ffffffffffffffffffffffffffffffffffffffff166c010000000000000000000000000281526014018273ffffffffffffffffffffffffffffffffffffffff1673ffffffffffffffffffffffffffffffffffffffff166c010000000000000000000000000281526014019250505060405180910390209050816001600083600019166000191681526020019081526020016000208190555060019250505092915050565b60006020528060005260406000206000915090505481565b6000600360008373ffffffffffffffffffffffffffffffffffffffff1673ffffffffffffffffffffffffffffffffffffffff168152602001908152602001600020549050919050565b6000600260008373ffffffffffffffffffffffffffffffffffffffff1673ffffffffffffffffffffffffffffffffffffffff168152602001908152602001600020549050919050565b600081600460008573ffffffffffffffffffffffffffffffffffffffff1673ffffffffffffffffffffffffffffffffffffffff168152602001908152602001600020819055506001905092915050565b600081600260008573ffffffffffffffffffffffffffffffffffffffff1673ffffffffffffffffffffffffffffffffffffffff168152602001908152602001600020819055506001905092915050565b60046020528060005260406000206000915090505481565b60026020528060005260406000206000915090505481565b600360205280600052604060002060009150905054815600a165627a7a72305820220b3ad363592dfc753d1e63ea049822ddcfd6205f291918fca877fad82f0d7a0029",
  "source": "pragma solidity ^0.4.8;\r\nimport './IERC20Token.sol';\r\n\r\n////////////////////////////////////////////////////////////////////////////////////////////////////////\r\n\r\n/// @title Pricing contract\r\n/// @author David Young\r\n\r\ncontract PricingModel {\r\n\r\n    uint  constant PRECISION = (10**3);\r\n\r\n    mapping(address=>uint256) public tokenPrice;\r\n    mapping(bytes32=>uint256) pairConversionRate;\r\n\r\n    //Fisher Equation: P = (I * T) / (B * V)\r\n    //P - price\r\n    //I - price index level of global\r\n    //T - size of token, \r\n    //B - supply of token, \r\n    //V - velocity of token\r\n\r\n    mapping(address=>uint256) public tokenPirceIndex;//I\r\n    mapping(address=>uint256) public tokenVolume;//T\r\n    mapping(address=>uint256) public tokenSupply;//B\r\n    mapping(address=>uint256) public tokenVelocity;//V\r\n\r\n\r\n    function PricingModel() {\r\n\r\n    }\r\n\r\n\r\n    //get and set price\r\n    function getPrice(IERC20Token token) constant returns(uint256) {\r\n        return tokenPrice[token];\r\n    }\r\n    function setPrice(IERC20Token token) returns(bool) {\r\n        var newPrice = (tokenPirceIndex[token] * tokenVolume[token] * PRECISION) / (tokenSupply[token] * tokenVelocity[token]);\r\n        tokenPrice[token] = newPrice;\r\n        return true;\r\n    }\r\n\r\n\r\n    //get and set rate\r\n    function getRate(IERC20Token source, IERC20Token dest) constant returns(uint256) {\r\n        var hash = sha3(source,dest);\r\n        return pairConversionRate[hash];\r\n    }\r\n    function setRate(IERC20Token source, IERC20Token dest) returns(bool) {\r\n        var rate = tokenPrice[source] * PRECISION / tokenPrice[dest];\r\n        var hash = sha3(source,dest);\r\n        pairConversionRate[hash] = rate;\r\n        return true;\r\n    }\r\n\r\n\r\n    //get and set priceINdex\r\n    function getPriceIndex(IERC20Token token) constant returns(uint256) {\r\n        return tokenPirceIndex[token];\r\n    }\r\n    function setPriceIndex(IERC20Token token, uint256 _amount) returns(bool) {\r\n        tokenPirceIndex[token] = _amount;\r\n        return true;\r\n    }\r\n\r\n\r\n    //get and set supply\r\n    function getSupply(IERC20Token token) constant returns(uint256) {\r\n        return tokenSupply[token];\r\n    }\r\n\r\n    function setSupply(IERC20Token token, uint256 _amount) public returns(bool) {\r\n        tokenSupply[token] = _amount;\r\n        return true;\r\n    }\r\n\r\n\r\n    //get and set volume\r\n    function getVolume(IERC20Token token) constant returns(uint256) {\r\n        return tokenVolume[token];\r\n    }\r\n    function setVolume(IERC20Token token, uint256 _amount) public returns(bool) {\r\n        tokenVolume[token] = _amount;\r\n        return true;\r\n    }\r\n\r\n\r\n    //get and set volume\r\n    function getVelocity(IERC20Token token) constant returns(uint256) {\r\n        return tokenVelocity[token];\r\n    }\r\n    function setVelocity(IERC20Token token, uint256 _amount) public returns(bool) {\r\n        tokenVelocity[token] = _amount;\r\n        return true;\r\n    }\r\n\r\n\r\n\r\n\r\n}\r\n",
  "sourcePath": "/home/david/eth_project/my_project_npm/contracts/PricingModel.sol",
  "compiler": {
    "name": "solc",
    "version": "0.4.18+commit.9cf6e910.Emscripten.clang"
  },
  "schemaVersion": "1.0.1",
  "updatedAt": "2017-12-21T14:45:43.302Z"
}