{
  "contractName": "Trade",
  "abi": [
    {
      "constant": false,
      "inputs": [
        {
          "name": "pricingModelAddr",
          "type": "address"
        },
        {
          "name": "sourceToken",
          "type": "address"
        },
        {
          "name": "sourceAmount",
          "type": "uint256"
        },
        {
          "name": "destToken",
          "type": "address"
        },
        {
          "name": "destAddress",
          "type": "address"
        }
      ],
      "name": "doTrade",
      "outputs": [
        {
          "name": "",
          "type": "uint256"
        }
      ],
      "payable": false,
      "stateMutability": "nonpayable",
      "type": "function"
    },
    {
      "constant": true,
      "inputs": [
        {
          "name": "pricingModelAddr",
          "type": "address"
        },
        {
          "name": "source",
          "type": "address"
        },
        {
          "name": "dest",
          "type": "address"
        }
      ],
      "name": "getConversionRate",
      "outputs": [
        {
          "name": "",
          "type": "uint256"
        }
      ],
      "payable": false,
      "stateMutability": "view",
      "type": "function"
    },
    {
      "anonymous": false,
      "inputs": [
        {
          "indexed": true,
          "name": "origin",
          "type": "address"
        },
        {
          "indexed": false,
          "name": "source",
          "type": "address"
        },
        {
          "indexed": false,
          "name": "sourceAmount",
          "type": "uint256"
        },
        {
          "indexed": false,
          "name": "destToken",
          "type": "address"
        },
        {
          "indexed": false,
          "name": "destAmount",
          "type": "uint256"
        },
        {
          "indexed": false,
          "name": "destAddress",
          "type": "address"
        }
      ],
      "name": "DoTrade",
      "type": "event"
    }
  ],
  "bytecode": "0x6060604052341561000f57600080fd5b6102ef8061001e6000396000f30060606040526004361061004c576000357c0100000000000000000000000000000000000000000000000000000000900463ffffffff1680638674f92014610051578063ff47b5a614610104575b600080fd5b341561005c57600080fd5b6100ee600480803573ffffffffffffffffffffffffffffffffffffffff1690602001909190803573ffffffffffffffffffffffffffffffffffffffff1690602001909190803590602001909190803573ffffffffffffffffffffffffffffffffffffffff1690602001909190803573ffffffffffffffffffffffffffffffffffffffff1690602001909190505061018f565b6040518082815260200191505060405180910390f35b341561010f57600080fd5b610179600480803573ffffffffffffffffffffffffffffffffffffffff1690602001909190803573ffffffffffffffffffffffffffffffffffffffff1690602001909190803573ffffffffffffffffffffffffffffffffffffffff169060200190919050506101c1565b6040518082815260200191505060405180910390f35b600080600061019f8888876101c1565b91506103e88683028115156101b057fe5b049050809250505095945050505050565b6000808490508073ffffffffffffffffffffffffffffffffffffffff1663379b87ea85856000604051602001526040518363ffffffff167c0100000000000000000000000000000000000000000000000000000000028152600401808373ffffffffffffffffffffffffffffffffffffffff1673ffffffffffffffffffffffffffffffffffffffff1681526020018273ffffffffffffffffffffffffffffffffffffffff1673ffffffffffffffffffffffffffffffffffffffff16815260200192505050602060405180830381600087803b151561029e57600080fd5b6102c65a03f115156102af57600080fd5b5050506040518051905091505093925050505600a165627a7a7230582059ab53937eefb3b672c86da7d452fa33973ce57765346221845acb34517f1af20029",
  "source": "pragma solidity ^0.4.8;\r\n\r\nimport './IERC20Token.sol';\r\nimport './PricingModel.sol';\r\n\r\n/// @title Trade contract\r\n/// @author David Young\r\n\r\ncontract Trade {\r\n\r\n    uint  constant PRECISION = (10**3);\r\n\r\n    event DoTrade( address indexed origin, address source, uint sourceAmount, address destToken, uint destAmount, address destAddress );\r\n\r\n\r\n    function getConversionRate(address pricingModelAddr, IERC20Token source, IERC20Token dest) public constant returns(uint256) {\r\n        var pricingModel = PricingModel(pricingModelAddr);\r\n        return pricingModel.getRate(source, dest);\r\n    }\r\n\r\n    /// @dev do a trade\r\n    /// @param sourceToken Source token\r\n    /// @param sourceAmount Amount of source token\r\n    /// @param destToken Destination token\r\n    /// @param destAddress Destination address to send tokens to\r\n    /// @return true iff trade is succesful\r\n\r\n    function doTrade(address pricingModelAddr, IERC20Token sourceToken, uint256 sourceAmount, IERC20Token destToken, address destAddress) returns(uint256) {\r\n\r\n        uint256 conversionRate = getConversionRate(pricingModelAddr, sourceToken, destToken);\r\n        uint256 destAmount = (conversionRate * sourceAmount) / PRECISION;\r\n\r\n        return destAmount;\r\n        \r\n        //sourceToken.transferFrom(msg.sender, destAddress, sourceAmount);\r\n        //destToken.transferFrom(destAddress, msg.sender, destAmount); \r\n\r\n        //DoTrade(tx.origin, sourceToken, sourceAmount, destToken, destAmount, destAddress);\r\n        //return true;\r\n    }\r\n\r\n}",
  "sourcePath": "/home/david/eth_project/my_project_npm/contracts/Trade.sol",
  "compiler": {
    "name": "solc",
    "version": "0.4.18+commit.9cf6e910.Emscripten.clang"
  },
  "schemaVersion": "1.0.1",
  "updatedAt": "2017-12-21T14:45:43.350Z"
}