{
  "contractName": "Wallet",
  "abi": [
    {
      "constant": false,
      "inputs": [
        {
          "name": "_account",
          "type": "address"
        },
        {
          "name": "_token",
          "type": "address"
        }
      ],
      "name": "addToken",
      "outputs": [],
      "payable": false,
      "stateMutability": "nonpayable",
      "type": "function"
    },
    {
      "constant": true,
      "inputs": [
        {
          "name": "_account",
          "type": "address"
        }
      ],
      "name": "getToken",
      "outputs": [
        {
          "name": "",
          "type": "address[]"
        }
      ],
      "payable": false,
      "stateMutability": "view",
      "type": "function"
    },
    {
      "constant": true,
      "inputs": [
        {
          "name": "",
          "type": "address"
        },
        {
          "name": "",
          "type": "uint256"
        }
      ],
      "name": "tokenList",
      "outputs": [
        {
          "name": "",
          "type": "address"
        }
      ],
      "payable": false,
      "stateMutability": "view",
      "type": "function"
    },
    {
      "constant": true,
      "inputs": [
        {
          "name": "list",
          "type": "address[]"
        },
        {
          "name": "item",
          "type": "address"
        }
      ],
      "name": "isTokenExisted",
      "outputs": [
        {
          "name": "",
          "type": "bool"
        }
      ],
      "payable": false,
      "stateMutability": "view",
      "type": "function"
    },
    {
      "inputs": [],
      "payable": false,
      "stateMutability": "nonpayable",
      "type": "constructor"
    }
  ],
  "bytecode": "0x6060604052341561000f57600080fd5b6106058061001e6000396000f300606060405260043610610062576000357c0100000000000000000000000000000000000000000000000000000000900463ffffffff1680635476bd721461006757806359770438146100bf578063bebfd6901461014d578063ebdb2211146101cf575b600080fd5b341561007257600080fd5b6100bd600480803573ffffffffffffffffffffffffffffffffffffffff1690602001909190803573ffffffffffffffffffffffffffffffffffffffff16906020019091905050610260565b005b34156100ca57600080fd5b6100f6600480803573ffffffffffffffffffffffffffffffffffffffff169060200190919050506103d6565b6040518080602001828103825283818151815260200191508051906020019060200280838360005b8381101561013957808201518184015260208101905061011e565b505050509050019250505060405180910390f35b341561015857600080fd5b61018d600480803573ffffffffffffffffffffffffffffffffffffffff169060200190919080359060200190919050506104a8565b604051808273ffffffffffffffffffffffffffffffffffffffff1673ffffffffffffffffffffffffffffffffffffffff16815260200191505060405180910390f35b34156101da57600080fd5b61024660048080359060200190820180359060200190808060200260200160405190810160405280939291908181526020018383602002808284378201915050505050509190803573ffffffffffffffffffffffffffffffffffffffff169060200190919050506104f6565b604051808215151515815260200191505060405180910390f35b61032c6000808473ffffffffffffffffffffffffffffffffffffffff1673ffffffffffffffffffffffffffffffffffffffff16815260200190815260200160002080548060200260200160405190810160405280929190818152602001828054801561032157602002820191906000526020600020905b8160009054906101000a900473ffffffffffffffffffffffffffffffffffffffff1673ffffffffffffffffffffffffffffffffffffffff16815260200190600101908083116102d7575b5050505050826104f6565b15156103d2576000808373ffffffffffffffffffffffffffffffffffffffff1673ffffffffffffffffffffffffffffffffffffffff16815260200190815260200160002080548060010182816103829190610574565b9160005260206000209001600083909190916101000a81548173ffffffffffffffffffffffffffffffffffffffff021916908373ffffffffffffffffffffffffffffffffffffffff160217905550505b5050565b6103de6105a0565b6000808373ffffffffffffffffffffffffffffffffffffffff1673ffffffffffffffffffffffffffffffffffffffff16815260200190815260200160002080548060200260200160405190810160405280929190818152602001828054801561049c57602002820191906000526020600020905b8160009054906101000a900473ffffffffffffffffffffffffffffffffffffffff1673ffffffffffffffffffffffffffffffffffffffff1681526020019060010190808311610452575b50505050509050919050565b6000602052816000526040600020818154811015156104c357fe5b90600052602060002090016000915091509054906101000a900473ffffffffffffffffffffffffffffffffffffffff1681565b600080600090505b8351811015610568578273ffffffffffffffffffffffffffffffffffffffff16848281518110151561052c57fe5b9060200190602002015173ffffffffffffffffffffffffffffffffffffffff16141561055b576001915061056d565b80806001019150506104fe565b600091505b5092915050565b81548183558181151161059b5781836000526020600020918201910161059a91906105b4565b5b505050565b602060405190810160405280600081525090565b6105d691905b808211156105d25760008160009055506001016105ba565b5090565b905600a165627a7a72305820e29c2b948dde8ca17140ac01ae6747c9718ad8120d00e58b902da766d2901f790029",
  "source": "pragma solidity ^0.4.8;\r\nimport './IERC20Token.sol';\r\n\r\n////////////////////////////////////////////////////////////////////////////////////////////////////////\r\n\r\n/// @title Wallet contract\r\n/// @author David Young\r\n\r\ncontract Wallet {\r\n\r\n\r\n    mapping(address=>address[]) public tokenList;\r\n\r\n    function Wallet() {\r\n\r\n    }\r\n\r\n    function isTokenExisted (address[] list, address item) public constant returns (bool) {\r\n        for (uint i = 0; i < list.length; i++) {\r\n            if (list[i] == item) {\r\n                return true;\r\n            }\r\n        }\r\n        return false;\r\n    }\r\n\r\n    function addToken(address _account, address _token) public {\r\n            if (!isTokenExisted(tokenList[_account], _token)) {\r\n                tokenList[_account].push(_token);\r\n            }\r\n    }\r\n\r\n    function getToken(address _account) public constant returns (address[]) {\r\n        return tokenList[_account];\r\n    }\r\n\r\n\r\n/*\r\n\r\n    //这个逻辑就是错的。要判断数组内存不存在某个元素，应遍历每个数组，判断每个元素是否与当前元素相等即可，并不需要单独做一个struct。一开始都不知道这个元素是否存在，就无法访问到struct的exist了....\r\n    struct TokenInfo {\r\n        IERC20Token token;\r\n        //0 means unregistered\r\n        uint exist;\r\n    }\r\n\r\n    mapping(address=>TokenInfo[]) public tokenList;\r\n    //mapping(address=>IERC20Token[]) public tokenList;\r\n\r\n    function Wallet() {\r\n\r\n    }\r\n\r\n\r\n    function addToken(address _account, IERC20Token _token) public returns (string){\r\n        for (uint i = 0; i <= tokenList[_account].length; i++) {\r\n            if (tokenList[_account][i].exist == 0) {\r\n                //var tokenInfo = TokenInfo(_token, 1);\r\n                //tokenList[_account].push(tokenInfo);\r\n                //address instead of IERC20Token?\r\n                return 'here!';\r\n            }\r\n        }\r\n    }\r\n\r\n\r\n\r\n    function getToken(address _account) public constant returns (IERC20Token[]) {\r\n        IERC20Token[] returnList;\r\n        for (uint i = 0; i < tokenList[_account].length; i++) {\r\n            returnList.push(tokenList[_account][i].token);\r\n        }\r\n        return returnList;\r\n    }\r\n\r\n    function getTokenListLength(address _account) public constant returns (uint) {\r\n        return tokenList[_account].length;\r\n    }\r\n\r\n/*\r\n    function addToken(address _account, IERC20Token _token) public {\r\n        if(tokenList[_account].exist == 0) {\r\n            tokenList[_account].push(TokenInfo(_token, 1));\r\n        }\r\n    }\r\n\r\n    function getToken(address _account) public constant returns (IERC20Token[]) {\r\n            return tokenList[_account];\r\n    }\r\n*/\r\n\r\n}\r\n",
  "sourcePath": "/home/david/eth_project/my_project_npm/contracts/Wallet.sol",
  "compiler": {
    "name": "solc",
    "version": "0.4.18+commit.9cf6e910.Emscripten.clang"
  },
  "schemaVersion": "1.0.1",
  "updatedAt": "2017-12-21T14:45:43.351Z"
}